:030000000201A555
:0C01A500787FE4F6D8FD7581090201B1F5
:100186003F065B4F666D7D077F6F777C395E7971C1
:010196000068
:040164007F0A7E0090
:10016800D3EF9400EE940040147D6E7C00ED1D707A
:0D017800011CED4C70F7EF1F70E61E80E3D8
:010185002257
:0E019700EF90018693F5807F0A7E00020168DA
:100003007590FE8590085308F0E50864F060491286
:1000130001648590085308F0E50864F0603A859020
:1000230008E5082482601B24C0601224E0600924D0
:10003300F07012E4F509800D750901800875090255
:100043008003750903E50864F06008859008530888
:10005300F080F2AF091201977590FD85900853085F
:10006300F0E50864F060491201648590085308F0D4
:10007300E50864F0603A859008E5082483601B2452
:10008300C0601224E0600924F07012750904800D29
:1000930075090580087509068003750907E5086475
:1000A300F060088590085308F080F2AF09120197B9
:1000B3007590FB8590085308F0E50864F0604912D9
:1000C30001648590085308F0E50864F0603A859070
:1000D30008E5082485601B24C0601224E06009241D
:1000E300F07012750908800D750909800875090AF1
:1000F300800375090BE50864F060088590085308D0
:10010300F080F2AF091201977590F78590085308B4
:10011300F0E50864F060491201648590085308F023
:10012300E50864F0603A859008E5082489601B249B
:10013300C0601224E0600924F0701275090C800D70
:1001430075090D800875090E800375090FE50864AC
:10015300F060088590085308F080F2AF0912019708
:010163002279
:0801B100E4F58012000380FB5D
:00000001FF
