:030000000200F407
:0C00F400787FE4F6D8FD75810C02000353
:100068007FBFDFEFF7FBFDFE0012147814120000CB
:1000780000081201FF0010087F415D555D417F00B7
:080088007C4848FF48487C0059
:1000B600E4FDFCC3ED9FEC9E5015E4FBFA0BBB0080
:0F00C600010AEB64794A70F50DBD00010C80E46E
:0100D5002208
:10009000C2B6C2CDE4FEEFC4131313540124FF9281
:1000A000B4EF25E0FFD2B60000C2B60EBE08E7D21C
:0500B000CD0000C2CDEF
:0100B5002228
:03000300750CFE7B
:10000600E4F50AF50BE4F508E4FF120090E5089024
:10001600006893F580E50975F008A42470F582E47C
:100026003400F583E5822508F582E43583F583E41B
:1000360093FF1200907F027E001200B60508E508C5
:10004600C3940840C3050BE50B7002050AC394323E
:10005600E50A940040AF0509E509B404A3E4F509EF
:02006600809E7A
:1000D600D3EF9400EE940040147D6E7C00ED1D700D
:0D00E600011CED4C70F7EF1F70E61E80E36B
:0100F30022EA
:00000001FF
