:0300000002000EED
:0C000E00787FE4F6D8FD75810F02008BAE
:1000E6003F065B4F666D7D077F6F777C395E797162
:10008B00758911758C4C758AD0758D4C758BD0D24A
:10009B00AFD2A9D2ABD28CD28EAD0BAF0A12005617
:0200AB0080F7DC
:040056008F0D8D0E6F
:10005A00E4F50FE50F14600704700AC2A28002D209
:10006A00A2C2A3C2A4E50F9000E693F5807F057EA5
:10007A00001200ADE4F580050FE50FC3940240D3EA
:01008A002253
:1000AD00D3EF9400EE940040147D6E7C00ED1D7036
:0D00BD00011CED4C70F7EF1F70E61E80E394
:0100CA002213
:03000B000200CB25
:1000CB00C0E0C0D0758C4C758AD00508E508B41417
:0B00DB0005750800B2A0D0D0D0E032C4
:03001B0002001EC2
:10001E00C0E0C0F0C0D0758D4C758BD00509E509D8
:10002E00B4141E750C00050CE50CB43C14750C00D4
:10003E00E50C75F00A84F50AE50C75F00A8485F076
:08004E000BD0D0D0F0D0E0325D
:00000001FF
