:030000000208EE05
:0C08EE00787FE4F6D8FD75810A0208E16D
:1008C3003F065B4F666D7D077F6F777C395E79717D
:10084900EF75F00A84FEEF75F00A8485F00AD2A2EA
:10085900C2A3C2A4AF06EF9008C393F5807F057EBB
:1008690000120886C2A2C2A3C2A4E50A9008C393D3
:09087900F5807F057E000208866F
:040882007F0A7E006B
:10088600D3EF9400EE940040147D6E7C00ED1D7055
:0D089600011CED4C70F7EF1F70E61E80E3B3
:0108A3002232
:0E08D300758901758C4CE4F58AD2AFD2A9224A
:1008000020B11312088220B10D0508E508643C7080
:1008100002F50830B1FD20B01212088220B00CE5BC
:1008200008700375083C150830B0FD20B20C1208A2
:100830008220B206E4F50830B2FD20B30B12088224
:0908400020B30530B3FDB28C2297
:0D08E1001208D3120800AF0812084980F673
:03000B000208A444
:1008A400C0E0758C4C758A000509E5096414700C68
:0F08B400F5090508E508643C7002F508D0E0324C
:00000001FF
