:03000000020003F8
:0C000300787FE4F6D8FD75810802004A01
:0300B10001080043
:10008F00758920758DFD758BFDD28EE4F58775987A
:02009F005022ED
:1000A10012008F3098FDC2988599088508A080F3C9
:10000F000200A1E493A3F8E493A34003F68001F266
:10001F0008DFF48029E493A3F85407240CC8C333F2
:10002F00C4540F4420C8834004F456800146F6DFC1
:10003F00E4800B01020408102040809000B1E47EA0
:10004F00019360BCA3FF543F30E509541FFEE493B6
:10005F00A360010ECF54C025E060A840B8E493A37D
:10006F00FAE493A3F8E493A3C8C582C8CAC583CAA8
:10007F00F0A3C8C582C8CAC583CADFE9DEE780BE60
:0100B400004B
:00000001FF
