:030000000200B744
:0C00B700787FE4F6D8FD75810C02008F04
:1000A7003F065B4F666D7D077F6F777C395E7971A1
:10008F00758901758C4C758AD0D2AFD2A9D28CAD3F
:08009F000AAF0912004680F7C8
:100046008D0CD2A2C2A3C2A4EF9000A793F5807F25
:10005600057E00120071C2A2C2A3C2A4E50C9000E4
:0B006600A793F5807F057E000200716B
:10007100D3EF9400EE940040147D6E7C00ED1D7072
:0D008100011CED4C70F7EF1F70E61E80E3D0
:01008E00224F
:03000B0002000EE2
:10000E00C0E0C0F0C0D0758C4C758AD00508E508EC
:10001E00B4141E750800050BE50BB43C03750B00FC
:10002E00E50B75F00A84F509E50B75F00A8485F089
:08003E000AD0D0D0F0D0E0326E
:00000001FF
