:030000000200F902
:0C00F900787FE4F6D8FD75810E02010D41
:0801050030383F3E796E3F3EA9
:0600C500F5A07F647E003F
:1000CB008E0A8F0BD3E50B9400E50A9400401E7546
:1000DB000C00750D6EE50D150D7002150CE50D453B
:0E00EB000C70F2E50B150B70DB150A80D722A6
:10000300E4FDEDB40800504D900012F82828730267
:10001300005202004E02004602004202003A020071
:100023003602002E02002AC2A28002D2A2C2A3C2BA
:10003300A48022C2A28002D2A2D2A3C2A48016C2EA
:10004300A28002D2A2C2A3D2A4800AC2A28002D2F8
:10005300A2D2A3D2A4ED90010593F5807FF47E0193
:0C0063001200CBE4F5800DED64087096EF
:01006F00226E
:0A0070007F0A7E001200CB20B13A97
:10007A0075A0FEE4F50EAFA07801EF08800123D841
:10008A00FD1200C5050EE50EC3940740E9E4F50E1E
:10009A00AFA07801EF08800103D8FD1200C5050E54
:0A00AA00E50EC3940740E930B1FDF4
:1000B4007F0A7E001200CB20B00312000330B0FD93
:0100C4002219
:05010D0012007080FBF0
:00000001FF
