:03000000020909E9
:0C090900787FE4F6D8FD75810E02091D10
:0809150030383F3E796E3F3E91
:0608D500F5A07F647E0027
:1008DB008E0A8F0BD3E50B9400E50A9400401E752E
:1008EB000C00750D6EE50D150D7002150CE50D4523
:0E08FB000C70F2E50B150B70DB150A80D7228E
:10080000E4FDEDC39408748094805067EDB4080053
:10081000504D900819F8282873020859020855020B
:10082000084D02084902084102083D020835020845
:1008300031C2A28002D2A2C2A3C2A48022C2A280DC
:1008400002D2A2D2A3C2A48016C2A28002D2A2C2A5
:10085000A3D2A4800AC2A28002D2A2D2A3D2A4EDC3
:1008600090091593F5807FF47E011208DBE4F58092
:030870000D808F69
:010873002262
:0A0874007F0A7E001208DB20B14667
:10087E0075A0FEE4F50EC3E50E94077480948050C7
:10088E0012AFA07801EF08800123D8FD1208D5051C
:10089E000E80E3E4F50EC3E50E9407748094805049
:1008AE0012AFA07801EF08800103D8FD1208D5051C
:0608BE000E80E330B1FDE5
:1008C4007F0A7E001208DB20B00312080030B0FD5E
:0108D4002201
:05091D0012087480FBCC
:00000001FF
