:03000000020800F3
:0C080000787FE4F6D8FD75810C020847F3
:1008F8004944330300000005292B544954320000B1
:100908000009000001FFFEA390004E1C59545045F9
:100918003100000007000001FFFE228C9B5154416A
:100928004C4200000009000001FFFEA390004E1C8D
:1009380059545858580000001F000001FFFE490094
:03096700010B0081
:10088C00E4F508F50975890175A882758CD8758A07
:10089C00EFD28CE4F50B0509E5097002050824F884
:1008AC00F58274083508F583E493F50A0509E50922
:1008BC007002050824F8F58274083508F583E49372
:1008CC00F50CE50B650C60CBAF0A7E00EFF4601104
:1008DC00EF6007B29512094880E8E4F508F5098045
:0C08EC00B2C295AF0C7E0012094880D605
:03000B0002095E89
:09095E00758CD8758AEF050B3287
:100948007D02EF4E600FED60031D80FA7D02EF1F00
:0509580070F01E80EDAF
:01095D002277
:10080C0002088CE493A3F8E493A34003F68001F26E
:10081C0008DFF48029E493A3F85407240CC8C333ED
:10082C00C4540F4420C8834004F456800146F6DFBC
:10083C00E4800B0102040810204080900967E47EDC
:10084C00019360BCA3FF543F30E509541FFEE493B1
:10085C00A360010ECF54C025E060A840B8E493A378
:10086C00FAE493A3F8E493A3C8C582C8CAC583CAA3
:10087C00F0A3C8C582C8CAC583CADFE9DEE780BE5B
:01096A00008C
:00000001FF
