:030000000200D328
:0C00D300787FE4F6D8FD75810A02000376
:10005D008040201008040201FFFFFFFFFFFFFFFF9C
:10006D00C3E7E7E7E7E7C3FF9900000081C3E7FFB8
:10007D00999999999981C3FFFFFFFFFFFFFFFFFF3B
:1000B300E4FDFCC3ED9FEC9E5015E4FBFA0BBB0083
:0F00C300010AEB64794A70F50DBD00010C80E471
:0100D200220B
:10008D00C2B6C2B5E4FEEFC4131313540124FF929C
:10009D00B4EF25E0FFD2B60000C2B60EBE08E7D21F
:0500AD00B50000C2B522
:0100B200222B
:10000300E4F509F50AE4F9E4FF12008DE990005DD7
:1000130093F580E50875F008A42465F582E43400BF
:10002300F583E58229F582E43583F583E493FF12B2
:10003300008D7F027E001200B309B908CA050AE5E4
:100043000A70020509C39432E509940040B7050814
:0A005300E508B404ABE4F50880A64C
:00000001FF
