:03000000020127D3
:0C012700787FE4F6D8FD7581090200F72E
:100108003F065B4F666D7D077F6F777C395E79713F
:0700D20093F5807F057E001D
:1000D900D3EF9400EE940040147D6E7C00ED1D700A
:0D00E900011CED4C70F7EF1F70E61E80E368
:0100F60022E7
:0F01180075890175A882758CFE758A33D28C2289
:03000B000200A749
:1000A700C0E0C0F0C0D0758CFE758A33E508C395F3
:1000B700095004D2B08002C2B00508E50875F028DF
:0B00C7008485F008D0D0D0F0D0E032EB
:10006C0020B21B7F0A7E001200D920B2110509E4D0
:10007C00F508E5096406700375090530B2FD20B377
:10008C00197F0A7E001200D920B30F1509E4F50878
:0B009C00E509700375090130B3FD2277
:10000E00E50924FE601314601814601C146021248A
:10001E00047023E4F9FAFB801DE4F97A047B058071
:10002E0015E4F97A09FB800E79017A037B058006C7
:10003E0079017A08E4FBC2A2D2A3C2A4E990010816
:10004E001200D2D2A2C2A3C2A4EA1200D2C2A2C28B
:0E005E00A3C2A4EB93F5807F057E000200D9BB
:1000F700750901E4F50812011812006C12000E8050
:01010700F8FF
:00000001FF
