:030000000200807B
:0C008000787FE4F6D8FD75810A020003C9
:100003007508FEE4F50AE4F50912005BAF08780110
:10001300EF08800123D8FDF5080509E509C3940815
:1000230040E7050AE50AC3940140DB75087FE4F560
:100033000AE50AC3940150C8E4F50912005BAF084E
:100043007801EF08800103D8FDF5080509E509C328
:08005300940840E7050A80D97A
:07005B008508A07FE87E0389
:10006200D3EF9400EE940040147D6E7C00ED1D7081
:0D007200011CED4C70F7EF1F70E61E80E3DF
:01007F00225E
:00000001FF
