:030000000208B73C
:0C08B700787FE4F6D8FD75810B0208C3C1
:1008A4000600383F3E7900BE000000000000000052
:0308B40000000041
:100874008E0A8F0BD3E50B9400E50A6480948040C4
:100884001E75080075096EE509150970021508E55D
:1008940009450870F2E50B150B70D9150A80D522AD
:10080000E4FDEDC39408748094805067EDB4080053
:10081000504D900819F8282873020859020855020B
:10082000084D02084902084102083D020835020845
:1008300031C2A28002D2A2C2A3C2A48022C2A280DC
:1008400002D2A2D2A3C2A48016C2A28002D2A2C2A5
:10085000A3D2A4800AC2A28002D2A2D2A3D2A4EDC3
:100860009008A493F5807FF47E01120874E4F5806B
:030870000D808F69
:010873002262
:0508C30012080080FB9B
:00000001FF
