:030000000200BA41
:0C00BA00787FE4F6D8FD75810B0200C6CB
:1000A7000600383F3E7900BE000000000000000057
:0300B70000000046
:100077008E0A8F0BD3E50B9400E50A6480948040C9
:100087001E75080075096EE509150970021508E562
:1000970009450870F2E50B150B70D9150A80D522B2
:10000300E4FDEDC39408748094805067EDB4080058
:10001300504D90001CF828287302005C020058021F
:10002300005002004C02004402004002003802006B
:1000330034C2A28002D2A2C2A3C2A48022C2A280DE
:1000430002D2A2D2A3C2A48016C2A28002D2A2C2AA
:10005300A3D2A4800AC2A28002D2A2D2A3D2A4EDC8
:100063009000A793F5807F017E00120077E4F5806E
:030073000D808F6E
:010076002267
:0500C60012000380FBA5
:00000001FF
