:030000000201AD4D
:0C01AD00787FE4F6D8FD75810A0200FBA3
:100003007FBFDFEFF7FBFDFE0000000000000000F4
:10001300008000000000008000C08080808080C0DD
:1000230000E0C0C0C0C0C0E000F06060606060F08D
:100033000078303030303078003C18181818183CED
:10004300001E8C8C8C0C0C1E000F86C6C6C6860F39
:1000530000C7E3E3E3C3C3070063F1F1F1E1C18345
:100063000031F8F8F8F0E0C10098FCFCFCF8F0600F
:1000730000CCFEFEFEFC78300066FFFFFF7E3C18DE
:1000830000337F7F7F3F1E0C00193F3F3F1F0F064A
:10009300008C9F9F9F8F870300C6CFCFCFC7C3819D
:1000A300006367676763E1C0003133333331F0E0E6
:1000B300009899999998F8F000CCCCCCCCCCFC78EA
:1000C3000066666666667E3C0033333333333F1E19
:1000D3000019191919191F0F000C0C0C0C0C0F0720
:1000E30000060606060607030003030303030301D2
:0800F3000001010101010100FF
:10018D00E4FDFCC3ED9FEC9E5015E4FBFA0BBB00A8
:0F019D00010AEB646E4A70F50DBD00010C80E4A1
:0101AC002230
:10015E00C2B6C2B5E4FEEEC3940874809480501803
:10016E00EFC4131313540124FF92B4EF25E0FFD212
:0E017E00B60000C2B60E80DED2B50000C2B5DB
:01018C002250
:1000FB00E4F509F50AE4F9E9C39408748094805097
:10010B0035E4FF12015EE990000393F580E5087575
:10011B00F008A4240BF582E43400F583E58229F57D
:10012B0082E43583F583E493FF12015E7F027E0048
:10013B0012018D0980C1050AE50A70020509C394F5
:10014B0014E509940040AE0508E508641E70A1F59E
:03015B0008809D7C
:00000001FF
